{
  "_format": "hh-sol-artifact-1",
  "contractName": "CarseNFT",
  "sourceName": "contracts/CarseNFT.sol",
  "abi": [
    {
      "inputs": [],
      "stateMutability": "nonpayable",
      "type": "constructor"
    },
    {
      "anonymous": false,
      "inputs": [
        {
          "indexed": true,
          "internalType": "address",
          "name": "owner",
          "type": "address"
        },
        {
          "indexed": true,
          "internalType": "address",
          "name": "approved",
          "type": "address"
        },
        {
          "indexed": true,
          "internalType": "uint256",
          "name": "tokenId",
          "type": "uint256"
        }
      ],
      "name": "Approval",
      "type": "event"
    },
    {
      "anonymous": false,
      "inputs": [
        {
          "indexed": true,
          "internalType": "address",
          "name": "owner",
          "type": "address"
        },
        {
          "indexed": true,
          "internalType": "address",
          "name": "operator",
          "type": "address"
        },
        {
          "indexed": false,
          "internalType": "bool",
          "name": "approved",
          "type": "bool"
        }
      ],
      "name": "ApprovalForAll",
      "type": "event"
    },
    {
      "anonymous": false,
      "inputs": [
        {
          "indexed": true,
          "internalType": "address",
          "name": "from",
          "type": "address"
        },
        {
          "indexed": true,
          "internalType": "address",
          "name": "to",
          "type": "address"
        },
        {
          "indexed": true,
          "internalType": "uint256",
          "name": "tokenId",
          "type": "uint256"
        }
      ],
      "name": "Transfer",
      "type": "event"
    },
    {
      "inputs": [],
      "name": "allTokens",
      "outputs": [
        {
          "internalType": "uint256",
          "name": "",
          "type": "uint256"
        }
      ],
      "stateMutability": "nonpayable",
      "type": "function"
    },
    {
      "inputs": [
        {
          "internalType": "address",
          "name": "to",
          "type": "address"
        },
        {
          "internalType": "uint256",
          "name": "tokenId",
          "type": "uint256"
        }
      ],
      "name": "approve",
      "outputs": [],
      "stateMutability": "nonpayable",
      "type": "function"
    },
    {
      "inputs": [
        {
          "internalType": "address",
          "name": "owner",
          "type": "address"
        }
      ],
      "name": "balanceOf",
      "outputs": [
        {
          "internalType": "uint256",
          "name": "",
          "type": "uint256"
        }
      ],
      "stateMutability": "view",
      "type": "function"
    },
    {
      "inputs": [
        {
          "internalType": "uint256",
          "name": "tokenId",
          "type": "uint256"
        }
      ],
      "name": "getApproved",
      "outputs": [
        {
          "internalType": "address",
          "name": "",
          "type": "address"
        }
      ],
      "stateMutability": "view",
      "type": "function"
    },
    {
      "inputs": [
        {
          "internalType": "address",
          "name": "owner",
          "type": "address"
        },
        {
          "internalType": "address",
          "name": "operator",
          "type": "address"
        }
      ],
      "name": "isApprovedForAll",
      "outputs": [
        {
          "internalType": "bool",
          "name": "",
          "type": "bool"
        }
      ],
      "stateMutability": "view",
      "type": "function"
    },
    {
      "inputs": [
        {
          "internalType": "address",
          "name": "recipient",
          "type": "address"
        },
        {
          "internalType": "string",
          "name": "hash",
          "type": "string"
        }
      ],
      "name": "mint",
      "outputs": [
        {
          "internalType": "uint256",
          "name": "",
          "type": "uint256"
        }
      ],
      "stateMutability": "nonpayable",
      "type": "function"
    },
    {
      "inputs": [],
      "name": "name",
      "outputs": [
        {
          "internalType": "string",
          "name": "",
          "type": "string"
        }
      ],
      "stateMutability": "view",
      "type": "function"
    },
    {
      "inputs": [
        {
          "internalType": "uint256",
          "name": "tokenId",
          "type": "uint256"
        }
      ],
      "name": "ownerOf",
      "outputs": [
        {
          "internalType": "address",
          "name": "",
          "type": "address"
        }
      ],
      "stateMutability": "view",
      "type": "function"
    },
    {
      "inputs": [
        {
          "internalType": "address",
          "name": "from",
          "type": "address"
        },
        {
          "internalType": "address",
          "name": "to",
          "type": "address"
        },
        {
          "internalType": "uint256",
          "name": "tokenId",
          "type": "uint256"
        }
      ],
      "name": "safeTransferFrom",
      "outputs": [],
      "stateMutability": "nonpayable",
      "type": "function"
    },
    {
      "inputs": [
        {
          "internalType": "address",
          "name": "from",
          "type": "address"
        },
        {
          "internalType": "address",
          "name": "to",
          "type": "address"
        },
        {
          "internalType": "uint256",
          "name": "tokenId",
          "type": "uint256"
        },
        {
          "internalType": "bytes",
          "name": "_data",
          "type": "bytes"
        }
      ],
      "name": "safeTransferFrom",
      "outputs": [],
      "stateMutability": "nonpayable",
      "type": "function"
    },
    {
      "inputs": [
        {
          "internalType": "address",
          "name": "operator",
          "type": "address"
        },
        {
          "internalType": "bool",
          "name": "approved",
          "type": "bool"
        }
      ],
      "name": "setApprovalForAll",
      "outputs": [],
      "stateMutability": "nonpayable",
      "type": "function"
    },
    {
      "inputs": [
        {
          "internalType": "bytes4",
          "name": "interfaceId",
          "type": "bytes4"
        }
      ],
      "name": "supportsInterface",
      "outputs": [
        {
          "internalType": "bool",
          "name": "",
          "type": "bool"
        }
      ],
      "stateMutability": "view",
      "type": "function"
    },
    {
      "inputs": [],
      "name": "symbol",
      "outputs": [
        {
          "internalType": "string",
          "name": "",
          "type": "string"
        }
      ],
      "stateMutability": "view",
      "type": "function"
    },
    {
      "inputs": [
        {
          "internalType": "uint256",
          "name": "tokenID",
          "type": "uint256"
        }
      ],
      "name": "tokenURI",
      "outputs": [
        {
          "internalType": "string",
          "name": "",
          "type": "string"
        }
      ],
      "stateMutability": "view",
      "type": "function"
    },
    {
      "inputs": [
        {
          "internalType": "address",
          "name": "from",
          "type": "address"
        },
        {
          "internalType": "address",
          "name": "to",
          "type": "address"
        },
        {
          "internalType": "uint256",
          "name": "tokenId",
          "type": "uint256"
        }
      ],
      "name": "transferFrom",
      "outputs": [],
      "stateMutability": "nonpayable",
      "type": "function"
    }
  ],
  "bytecode": "0x60806040523480156200001157600080fd5b506040518060400160405280600881526020017f43617273654e46540000000000000000000000000000000000000000000000008152506040518060400160405280600581526020017f6361727365000000000000000000000000000000000000000000000000000000815250816000908051906020019062000096929190620000b8565b508060019080519060200190620000af929190620000b8565b505050620001cd565b828054620000c69062000168565b90600052602060002090601f016020900481019282620000ea576000855562000136565b82601f106200010557805160ff191683800117855562000136565b8280016001018555821562000136579182015b828111156200013557825182559160200191906001019062000118565b5b50905062000145919062000149565b5090565b5b80821115620001645760008160009055506001016200014a565b5090565b600060028204905060018216806200018157607f821691505b602082108114156200019857620001976200019e565b5b50919050565b7f4e487b7100000000000000000000000000000000000000000000000000000000600052602260045260246000fd5b6126e180620001dd6000396000f3fe608060405234801561001057600080fd5b50600436106100f55760003560e01c80636ff97f1d11610097578063b88d4fde11610066578063b88d4fde14610284578063c87b56dd146102a0578063d0def521146102d0578063e985e9c514610300576100f5565b80636ff97f1d146101fc57806370a082311461021a57806395d89b411461024a578063a22cb46514610268576100f5565b8063095ea7b3116100d3578063095ea7b31461017857806323b872dd1461019457806342842e0e146101b05780636352211e146101cc576100f5565b806301ffc9a7146100fa57806306fdde031461012a578063081812fc14610148575b600080fd5b610114600480360381019061010f9190611975565b610330565b6040516101219190611d4c565b60405180910390f35b610132610412565b60405161013f9190611d67565b60405180910390f35b610162600480360381019061015d91906119c7565b6104a4565b60405161016f9190611ce5565b60405180910390f35b610192600480360381019061018d9190611939565b610529565b005b6101ae60048036038101906101a991906117df565b610641565b005b6101ca60048036038101906101c591906117df565b6106a1565b005b6101e660048036038101906101e191906119c7565b6106c1565b6040516101f39190611ce5565b60405180910390f35b610204610773565b6040516102119190611f49565b60405180910390f35b610234600480360381019061022f919061177a565b610784565b6040516102419190611f49565b60405180910390f35b61025261083c565b60405161025f9190611d67565b60405180910390f35b610282600480360381019061027d91906118a9565b6108ce565b005b61029e6004803603810190610299919061182e565b6108e4565b005b6102ba60048036038101906102b591906119c7565b610946565b6040516102c79190611d67565b60405180910390f35b6102ea60048036038101906102e591906118e5565b610a67565b6040516102f79190611f49565b60405180910390f35b61031a600480360381019061031591906117a3565b610b09565b6040516103279190611d4c565b60405180910390f35b60007f80ac58cd000000000000000000000000000000000000000000000000000000007bffffffffffffffffffffffffffffffffffffffffffffffffffffffff1916827bffffffffffffffffffffffffffffffffffffffffffffffffffffffff191614806103fb57507f5b5e139f000000000000000000000000000000000000000000000000000000007bffffffffffffffffffffffffffffffffffffffffffffffffffffffff1916827bffffffffffffffffffffffffffffffffffffffffffffffffffffffff1916145b8061040b575061040a82610b9d565b5b9050919050565b6060600080546104219061216e565b80601f016020809104026020016040519081016040528092919081815260200182805461044d9061216e565b801561049a5780601f1061046f5761010080835404028352916020019161049a565b820191906000526020600020905b81548152906001019060200180831161047d57829003601f168201915b5050505050905090565b60006104af82610c07565b6104ee576040517f08c379a00000000000000000000000000000000000000000000000000000000081526004016104e590611ec9565b60405180910390fd5b6004600083815260200190815260200160002060009054906101000a900473ffffffffffffffffffffffffffffffffffffffff169050919050565b6000610534826106c1565b90508073ffffffffffffffffffffffffffffffffffffffff168373ffffffffffffffffffffffffffffffffffffffff1614156105a5576040517f08c379a000000000000000000000000000000000000000000000000000000000815260040161059c90611f09565b60405180910390fd5b8073ffffffffffffffffffffffffffffffffffffffff166105c4610c73565b73ffffffffffffffffffffffffffffffffffffffff1614806105f357506105f2816105ed610c73565b610b09565b5b610632576040517f08c379a000000000000000000000000000000000000000000000000000000000815260040161062990611e49565b60405180910390fd5b61063c8383610c7b565b505050565b61065261064c610c73565b82610d34565b610691576040517f08c379a000000000000000000000000000000000000000000000000000000000815260040161068890611f29565b60405180910390fd5b61069c838383610e12565b505050565b6106bc838383604051806020016040528060008152506108e4565b505050565b6000806002600084815260200190815260200160002060009054906101000a900473ffffffffffffffffffffffffffffffffffffffff169050600073ffffffffffffffffffffffffffffffffffffffff168173ffffffffffffffffffffffffffffffffffffffff16141561076a576040517f08c379a000000000000000000000000000000000000000000000000000000000815260040161076190611e89565b60405180910390fd5b80915050919050565b600061077f6006611079565b905090565b60008073ffffffffffffffffffffffffffffffffffffffff168273ffffffffffffffffffffffffffffffffffffffff1614156107f5576040517f08c379a00000000000000000000000000000000000000000000000000000000081526004016107ec90611e69565b60405180910390fd5b600360008373ffffffffffffffffffffffffffffffffffffffff1673ffffffffffffffffffffffffffffffffffffffff168152602001908152602001600020549050919050565b60606001805461084b9061216e565b80601f01602080910402602001604051908101604052809291908181526020018280546108779061216e565b80156108c45780601f10610899576101008083540402835291602001916108c4565b820191906000526020600020905b8154815290600101906020018083116108a757829003601f168201915b5050505050905090565b6108e06108d9610c73565b8383611087565b5050565b6108f56108ef610c73565b83610d34565b610934576040517f08c379a000000000000000000000000000000000000000000000000000000000815260040161092b90611f29565b60405180910390fd5b610940848484846111f4565b50505050565b606061095182610c07565b610990576040517f08c379a000000000000000000000000000000000000000000000000000000000815260040161098790611ee9565b60405180910390fd5b60006008600084815260200190815260200160002080546109b09061216e565b80601f01602080910402602001604051908101604052809291908181526020018280546109dc9061216e565b8015610a295780601f106109fe57610100808354040283529160200191610a29565b820191906000526020600020905b815481529060010190602001808311610a0c57829003601f168201915b505050505090506000610a3a611250565b90508082604051602001610a4f929190611cc1565b60405160208183030381529060405292505050919050565b60006001600783604051610a7b9190611caa565b908152602001604051809103902060009054906101000a900460ff1660ff161415610aa557600080fd5b6001600783604051610ab79190611caa565b908152602001604051809103902060006101000a81548160ff021916908360ff160217905550610ae7600661128d565b6000610af36006611079565b9050610aff84826112a3565b8091505092915050565b6000600560008473ffffffffffffffffffffffffffffffffffffffff1673ffffffffffffffffffffffffffffffffffffffff16815260200190815260200160002060008373ffffffffffffffffffffffffffffffffffffffff1673ffffffffffffffffffffffffffffffffffffffff16815260200190815260200160002060009054906101000a900460ff16905092915050565b60007f01ffc9a7000000000000000000000000000000000000000000000000000000007bffffffffffffffffffffffffffffffffffffffffffffffffffffffff1916827bffffffffffffffffffffffffffffffffffffffffffffffffffffffff1916149050919050565b60008073ffffffffffffffffffffffffffffffffffffffff166002600084815260200190815260200160002060009054906101000a900473ffffffffffffffffffffffffffffffffffffffff1673ffffffffffffffffffffffffffffffffffffffff1614159050919050565b600033905090565b816004600083815260200190815260200160002060006101000a81548173ffffffffffffffffffffffffffffffffffffffff021916908373ffffffffffffffffffffffffffffffffffffffff160217905550808273ffffffffffffffffffffffffffffffffffffffff16610cee836106c1565b73ffffffffffffffffffffffffffffffffffffffff167f8c5be1e5ebec7d5bd14f71427d1e84f3dd0314c0f7b2291e5b200ac8c7c3b92560405160405180910390a45050565b6000610d3f82610c07565b610d7e576040517f08c379a0000000000000000000000000000000000000000000000000000000008152600401610d7590611e29565b60405180910390fd5b6000610d89836106c1565b90508073ffffffffffffffffffffffffffffffffffffffff168473ffffffffffffffffffffffffffffffffffffffff161480610df857508373ffffffffffffffffffffffffffffffffffffffff16610de0846104a4565b73ffffffffffffffffffffffffffffffffffffffff16145b80610e095750610e088185610b09565b5b91505092915050565b8273ffffffffffffffffffffffffffffffffffffffff16610e32826106c1565b73ffffffffffffffffffffffffffffffffffffffff1614610e88576040517f08c379a0000000000000000000000000000000000000000000000000000000008152600401610e7f90611da9565b60405180910390fd5b600073ffffffffffffffffffffffffffffffffffffffff168273ffffffffffffffffffffffffffffffffffffffff161415610ef8576040517f08c379a0000000000000000000000000000000000000000000000000000000008152600401610eef90611de9565b60405180910390fd5b610f0383838361147d565b610f0e600082610c7b565b6001600360008573ffffffffffffffffffffffffffffffffffffffff1673ffffffffffffffffffffffffffffffffffffffff1681526020019081526020016000206000828254610f5e9190612084565b925050819055506001600360008473ffffffffffffffffffffffffffffffffffffffff1673ffffffffffffffffffffffffffffffffffffffff1681526020019081526020016000206000828254610fb5919061202e565b92505081905550816002600083815260200190815260200160002060006101000a81548173ffffffffffffffffffffffffffffffffffffffff021916908373ffffffffffffffffffffffffffffffffffffffff160217905550808273ffffffffffffffffffffffffffffffffffffffff168473ffffffffffffffffffffffffffffffffffffffff167fddf252ad1be2c89b69c2b068fc378daa952ba7f163c4a11628f55a4df523b3ef60405160405180910390a4611074838383611482565b505050565b600081600001549050919050565b8173ffffffffffffffffffffffffffffffffffffffff168373ffffffffffffffffffffffffffffffffffffffff1614156110f6576040517f08c379a00000000000000000000000000000000000000000000000000000000081526004016110ed90611e09565b60405180910390fd5b80600560008573ffffffffffffffffffffffffffffffffffffffff1673ffffffffffffffffffffffffffffffffffffffff16815260200190815260200160002060008473ffffffffffffffffffffffffffffffffffffffff1673ffffffffffffffffffffffffffffffffffffffff16815260200190815260200160002060006101000a81548160ff0219169083151502179055508173ffffffffffffffffffffffffffffffffffffffff168373ffffffffffffffffffffffffffffffffffffffff167f17307eab39ab6107e8899845ad3d59bd9653f200f220920489ca2b5937696c31836040516111e79190611d4c565b60405180910390a3505050565b6111ff848484610e12565b61120b84848484611487565b61124a576040517f08c379a000000000000000000000000000000000000000000000000000000000815260040161124190611d89565b60405180910390fd5b50505050565b60606040518060400160405280600781526020017f697066733a2f2f00000000000000000000000000000000000000000000000000815250905090565b6001816000016000828254019250508190555050565b600073ffffffffffffffffffffffffffffffffffffffff168273ffffffffffffffffffffffffffffffffffffffff161415611313576040517f08c379a000000000000000000000000000000000000000000000000000000000815260040161130a90611ea9565b60405180910390fd5b61131c81610c07565b1561135c576040517f08c379a000000000000000000000000000000000000000000000000000000000815260040161135390611dc9565b60405180910390fd5b6113686000838361147d565b6001600360008473ffffffffffffffffffffffffffffffffffffffff1673ffffffffffffffffffffffffffffffffffffffff16815260200190815260200160002060008282546113b8919061202e565b92505081905550816002600083815260200190815260200160002060006101000a81548173ffffffffffffffffffffffffffffffffffffffff021916908373ffffffffffffffffffffffffffffffffffffffff160217905550808273ffffffffffffffffffffffffffffffffffffffff16600073ffffffffffffffffffffffffffffffffffffffff167fddf252ad1be2c89b69c2b068fc378daa952ba7f163c4a11628f55a4df523b3ef60405160405180910390a461147960008383611482565b5050565b505050565b505050565b60006114a88473ffffffffffffffffffffffffffffffffffffffff1661161e565b15611611578373ffffffffffffffffffffffffffffffffffffffff1663150b7a026114d1610c73565b8786866040518563ffffffff1660e01b81526004016114f39493929190611d00565b602060405180830381600087803b15801561150d57600080fd5b505af192505050801561153e57506040513d601f19601f8201168201806040525081019061153b919061199e565b60015b6115c1573d806000811461156e576040519150601f19603f3d011682016040523d82523d6000602084013e611573565b606091505b506000815114156115b9576040517f08c379a00000000000000000000000000000000000000000000000000000000081526004016115b090611d89565b60405180910390fd5b805181602001fd5b63150b7a0260e01b7bffffffffffffffffffffffffffffffffffffffffffffffffffffffff1916817bffffffffffffffffffffffffffffffffffffffffffffffffffffffff191614915050611616565b600190505b949350505050565b6000808273ffffffffffffffffffffffffffffffffffffffff163b119050919050565b600061165461164f84611f89565b611f64565b90508281526020810184848401111561166c57600080fd5b61167784828561212c565b509392505050565b600061169261168d84611fba565b611f64565b9050828152602081018484840111156116aa57600080fd5b6116b584828561212c565b509392505050565b6000813590506116cc8161264f565b92915050565b6000813590506116e181612666565b92915050565b6000813590506116f68161267d565b92915050565b60008151905061170b8161267d565b92915050565b600082601f83011261172257600080fd5b8135611732848260208601611641565b91505092915050565b600082601f83011261174c57600080fd5b813561175c84826020860161167f565b91505092915050565b60008135905061177481612694565b92915050565b60006020828403121561178c57600080fd5b600061179a848285016116bd565b91505092915050565b600080604083850312156117b657600080fd5b60006117c4858286016116bd565b92505060206117d5858286016116bd565b9150509250929050565b6000806000606084860312156117f457600080fd5b6000611802868287016116bd565b9350506020611813868287016116bd565b925050604061182486828701611765565b9150509250925092565b6000806000806080858703121561184457600080fd5b6000611852878288016116bd565b9450506020611863878288016116bd565b935050604061187487828801611765565b925050606085013567ffffffffffffffff81111561189157600080fd5b61189d87828801611711565b91505092959194509250565b600080604083850312156118bc57600080fd5b60006118ca858286016116bd565b92505060206118db858286016116d2565b9150509250929050565b600080604083850312156118f857600080fd5b6000611906858286016116bd565b925050602083013567ffffffffffffffff81111561192357600080fd5b61192f8582860161173b565b9150509250929050565b6000806040838503121561194c57600080fd5b600061195a858286016116bd565b925050602061196b85828601611765565b9150509250929050565b60006020828403121561198757600080fd5b6000611995848285016116e7565b91505092915050565b6000602082840312156119b057600080fd5b60006119be848285016116fc565b91505092915050565b6000602082840312156119d957600080fd5b60006119e784828501611765565b91505092915050565b6119f9816120b8565b82525050565b611a08816120ca565b82525050565b6000611a1982611feb565b611a238185612001565b9350611a3381856020860161213b565b611a3c8161225e565b840191505092915050565b6000611a5282611ff6565b611a5c8185612012565b9350611a6c81856020860161213b565b611a758161225e565b840191505092915050565b6000611a8b82611ff6565b611a958185612023565b9350611aa581856020860161213b565b80840191505092915050565b6000611abe603283612012565b9150611ac98261226f565b604082019050919050565b6000611ae1602583612012565b9150611aec826122be565b604082019050919050565b6000611b04601c83612012565b9150611b0f8261230d565b602082019050919050565b6000611b27602483612012565b9150611b3282612336565b604082019050919050565b6000611b4a601983612012565b9150611b5582612385565b602082019050919050565b6000611b6d602c83612012565b9150611b78826123ae565b604082019050919050565b6000611b90603883612012565b9150611b9b826123fd565b604082019050919050565b6000611bb3602a83612012565b9150611bbe8261244c565b604082019050919050565b6000611bd6602983612012565b9150611be18261249b565b604082019050919050565b6000611bf9602083612012565b9150611c04826124ea565b602082019050919050565b6000611c1c602c83612012565b9150611c2782612513565b604082019050919050565b6000611c3f602f83612012565b9150611c4a82612562565b604082019050919050565b6000611c62602183612012565b9150611c6d826125b1565b604082019050919050565b6000611c85603183612012565b9150611c9082612600565b604082019050919050565b611ca481612122565b82525050565b6000611cb68284611a80565b915081905092915050565b6000611ccd8285611a80565b9150611cd98284611a80565b91508190509392505050565b6000602082019050611cfa60008301846119f0565b92915050565b6000608082019050611d1560008301876119f0565b611d2260208301866119f0565b611d2f6040830185611c9b565b8181036060830152611d418184611a0e565b905095945050505050565b6000602082019050611d6160008301846119ff565b92915050565b60006020820190508181036000830152611d818184611a47565b905092915050565b60006020820190508181036000830152611da281611ab1565b9050919050565b60006020820190508181036000830152611dc281611ad4565b9050919050565b60006020820190508181036000830152611de281611af7565b9050919050565b60006020820190508181036000830152611e0281611b1a565b9050919050565b60006020820190508181036000830152611e2281611b3d565b9050919050565b60006020820190508181036000830152611e4281611b60565b9050919050565b60006020820190508181036000830152611e6281611b83565b9050919050565b60006020820190508181036000830152611e8281611ba6565b9050919050565b60006020820190508181036000830152611ea281611bc9565b9050919050565b60006020820190508181036000830152611ec281611bec565b9050919050565b60006020820190508181036000830152611ee281611c0f565b9050919050565b60006020820190508181036000830152611f0281611c32565b9050919050565b60006020820190508181036000830152611f2281611c55565b9050919050565b60006020820190508181036000830152611f4281611c78565b9050919050565b6000602082019050611f5e6000830184611c9b565b92915050565b6000611f6e611f7f565b9050611f7a82826121a0565b919050565b6000604051905090565b600067ffffffffffffffff821115611fa457611fa361222f565b5b611fad8261225e565b9050602081019050919050565b600067ffffffffffffffff821115611fd557611fd461222f565b5b611fde8261225e565b9050602081019050919050565b600081519050919050565b600081519050919050565b600082825260208201905092915050565b600082825260208201905092915050565b600081905092915050565b600061203982612122565b915061204483612122565b9250827fffffffffffffffffffffffffffffffffffffffffffffffffffffffffffffffff03821115612079576120786121d1565b5b828201905092915050565b600061208f82612122565b915061209a83612122565b9250828210156120ad576120ac6121d1565b5b828203905092915050565b60006120c382612102565b9050919050565b60008115159050919050565b60007fffffffff0000000000000000000000000000000000000000000000000000000082169050919050565b600073ffffffffffffffffffffffffffffffffffffffff82169050919050565b6000819050919050565b82818337600083830152505050565b60005b8381101561215957808201518184015260208101905061213e565b83811115612168576000848401525b50505050565b6000600282049050600182168061218657607f821691505b6020821081141561219a57612199612200565b5b50919050565b6121a98261225e565b810181811067ffffffffffffffff821117156121c8576121c761222f565b5b80604052505050565b7f4e487b7100000000000000000000000000000000000000000000000000000000600052601160045260246000fd5b7f4e487b7100000000000000000000000000000000000000000000000000000000600052602260045260246000fd5b7f4e487b7100000000000000000000000000000000000000000000000000000000600052604160045260246000fd5b6000601f19601f8301169050919050565b7f4552433732313a207472616e7366657220746f206e6f6e20455243373231526560008201527f63656976657220696d706c656d656e7465720000000000000000000000000000602082015250565b7f4552433732313a207472616e736665722066726f6d20696e636f72726563742060008201527f6f776e6572000000000000000000000000000000000000000000000000000000602082015250565b7f4552433732313a20746f6b656e20616c7265616479206d696e74656400000000600082015250565b7f4552433732313a207472616e7366657220746f20746865207a65726f2061646460008201527f7265737300000000000000000000000000000000000000000000000000000000602082015250565b7f4552433732313a20617070726f766520746f2063616c6c657200000000000000600082015250565b7f4552433732313a206f70657261746f7220717565727920666f72206e6f6e657860008201527f697374656e7420746f6b656e0000000000000000000000000000000000000000602082015250565b7f4552433732313a20617070726f76652063616c6c6572206973206e6f74206f7760008201527f6e6572206e6f7220617070726f76656420666f7220616c6c0000000000000000602082015250565b7f4552433732313a2062616c616e636520717565727920666f7220746865207a6560008201527f726f206164647265737300000000000000000000000000000000000000000000602082015250565b7f4552433732313a206f776e657220717565727920666f72206e6f6e657869737460008201527f656e7420746f6b656e0000000000000000000000000000000000000000000000602082015250565b7f4552433732313a206d696e7420746f20746865207a65726f2061646472657373600082015250565b7f4552433732313a20617070726f76656420717565727920666f72206e6f6e657860008201527f697374656e7420746f6b656e0000000000000000000000000000000000000000602082015250565b7f4552433732314d657461646174613a2055524920717565727920666f72206e6f60008201527f6e6578697374656e7420746f6b656e0000000000000000000000000000000000602082015250565b7f4552433732313a20617070726f76616c20746f2063757272656e74206f776e6560008201527f7200000000000000000000000000000000000000000000000000000000000000602082015250565b7f4552433732313a207472616e736665722063616c6c6572206973206e6f74206f60008201527f776e6572206e6f7220617070726f766564000000000000000000000000000000602082015250565b612658816120b8565b811461266357600080fd5b50565b61266f816120ca565b811461267a57600080fd5b50565b612686816120d6565b811461269157600080fd5b50565b61269d81612122565b81146126a857600080fd5b5056fea26469706673582212204b1cb987e9c04a947e1c2f5eeabc8235a25cb6d265b3ea615fe4155dffd8e74964736f6c63430008010033",
  "linkReferences": {},
  "deployedLinkReferences": {}
}